:020000040000FA
:10000000082100005F030000D7030000D9030000AF
:1000100000000000000000000000000000000000E0
:10002000000000000000000000000000DB030000F2
:100030000000000000000000DD030000DF030000FE
:1000400000000000110400000F040000ED03000098
:10005000EF030000F1030000F3030000F5030000CC
:10006000F7030000F9030000FB030000FD0300009C
:1000700001040000FF030000030400000504000069
:100080000000000007040000090400000B04000049
:100090000D040000EB030000E90300000000000075
:1000A000E103000000000000E30300000000000086
:1000B0000000000000000000E5030000E70300006E
:1000C00040BA7047C0BA704700B5E12040031949F3
:1000D0000860194800684005400F030000F0D8F997
:1000E0000604090E13181D22E120C00311490860FF
:1000F0001DE0E12080030F49086018E0E120400383
:100100000C49086013E00120C0030A4908600EE0B2
:10011000E12000040749086009E0E12040040549A6
:10012000086004E0E12040030249086000BF00BF0E
:1001300000BD704700200000004003400C00241F59
:1001400022608442FBD1704704002568954201D0AB
:1001500000F03AF92260236025689D4201D000F04A
:1001600033F9241D8C42F0D170470C00241F256800
:10017000954201D000F028F98442F7D17047A54A92
:10018000A54B5B1C9A42FCD170477746A24AFFF709
:10019000D5FFA14AA14BFFF7D7FFFFF7F0FF9F4A1A
:1001A0009D4BFFF7D1FFFFF7EAFF9B4AFFF7DDFF0B
:1001B0009A4AFFF7C3FF994A974BFFF7C5FFFFF72E
:1001C000DEFF954A954BFFF7BFFFFFF7D8FF934A35
:1001D000FFF7CBFFBE4670470C00241F226084420D
:1001E000FBD1704704002568954201D000F0ECF87F
:1001F0002360241D8C42F6D170470C00241F256813
:10020000954201D000F0E0F823608442F6D17047B7
:100210000C00241F2568954201D000F0D5F88442D7
:10022000F7D1704777467C4AFFF7D6FF7A4A7B4B77
:10023000FFF7D8FF794A784BFFF7D4FF764A774B20
:10024000FFF7DBFF754A744BFFF7D7FF724AFFF7E2
:10025000DFFF734AFFF7C0FF714A724BFFF7C2FF1F
:10026000704A6F4BFFF7BEFF6D4A6E4BFFF7C5FF3D
:100270006C4A6B4BFFF7C1FF694AFFF7C9FF6A4A37
:10028000FFF7AAFF684A694BFFF7ACFF674A664B66
:10029000FFF7A8FF644A654BFFF7AFFF634A624B65
:1002A000FFF7ABFF604AFFF7B3FF614AFFF794FF28
:1002B0005F4A604BFFF796FF5E4A5D4BFFF792FF88
:1002C0005B4A5C4BFFF799FF5A4A594BFFF795FF82
:1002D000574AFFF79DFF584AFFF77EFF564A574B94
:1002E000FFF780FF554A544BFFF77CFF524A534BB0
:1002F000FFF783FF514A504BFFF77FFF4E4AFFF74E
:1003000087FF4F4AFFF768FF4D4A4E4BFFF76AFFE2
:100310004C4A4B4BFFF766FF494A4A4BFFF76DFFCC
:10032000484A474BFFF769FF454AFFF771FF3B4AD1
:10033000FFF752FF394A384BFFF754FF364A374B25
:10034000FFF750FF354A344BFFF757FF324A334B24
:10035000FFF753FF314AFFF75BFFBE4670473A484D
:100360003A4901633A4901613A4901623A483B49D5
:100370000160294941603A49C1603348394A0168FE
:1003800011409142FBD1244901603749416037480F
:100390003749FFF747FFFFF7F8FE1F483549334A53
:1003A0001D4BC458D45004338B42FAD132482F49E4
:1003B0004018004718482D49FFF734FFFFF7E5FEC6
:1003C0002E482F49016002E02C482E4901602E483A
:1003D0002E490160FBE7FEE7FEE7FEE7FEE7FEE7EA
:1003E000FEE7FEE7FEE7FEE7FEE7FEE7FEE7FEE7E5
:1003F000FEE7FEE7FEE7FEE7FEE7FEE7FEE7FEE7D5
:10040000FEE7FEE7FEE7FEE7FEE7FEE7FEE7FEE7C4
:10041000FEE700000000050000000000FFFFFFFFF6
:1004200055555555AAAAAAAA33333333CCCCCCCCD4
:100430000F0F0F0FF0F0F0F0FF00FF0000FF00FFC4
:10044000FFFF00000000FFFF0040034082000000AB
:10045000130000002002000000000050FFF8FFFF22
:1004600000F00000008000000D00000000200000EF
:100470000040000000080000B5030000F83700004D
:10048000325476987856341200000340BB000000C6
:1004900030B47446641E2578641CAB4204D3635D9B
:1004A0005B00E31830BC18471D46F8E700201C002D
:0400000500000000F7
:00000001FF
